{
  "contractName": "Crud",
  "abi": [
    {
      "anonymous": false,
      "inputs": [
        {
          "indexed": true,
          "internalType": "bytes32",
          "name": "role",
          "type": "bytes32"
        },
        {
          "indexed": true,
          "internalType": "bytes32",
          "name": "previousAdminRole",
          "type": "bytes32"
        },
        {
          "indexed": true,
          "internalType": "bytes32",
          "name": "newAdminRole",
          "type": "bytes32"
        }
      ],
      "name": "RoleAdminChanged",
      "type": "event"
    },
    {
      "anonymous": false,
      "inputs": [
        {
          "indexed": true,
          "internalType": "bytes32",
          "name": "role",
          "type": "bytes32"
        },
        {
          "indexed": true,
          "internalType": "address",
          "name": "account",
          "type": "address"
        },
        {
          "indexed": true,
          "internalType": "address",
          "name": "sender",
          "type": "address"
        }
      ],
      "name": "RoleGranted",
      "type": "event"
    },
    {
      "anonymous": false,
      "inputs": [
        {
          "indexed": true,
          "internalType": "bytes32",
          "name": "role",
          "type": "bytes32"
        },
        {
          "indexed": true,
          "internalType": "address",
          "name": "account",
          "type": "address"
        },
        {
          "indexed": true,
          "internalType": "address",
          "name": "sender",
          "type": "address"
        }
      ],
      "name": "RoleRevoked",
      "type": "event"
    },
    {
      "inputs": [],
      "name": "DEFAULT_ADMIN_ROLE",
      "outputs": [
        {
          "internalType": "bytes32",
          "name": "",
          "type": "bytes32"
        }
      ],
      "stateMutability": "view",
      "type": "function"
    },
    {
      "inputs": [
        {
          "internalType": "bytes32",
          "name": "role",
          "type": "bytes32"
        }
      ],
      "name": "getRoleAdmin",
      "outputs": [
        {
          "internalType": "bytes32",
          "name": "",
          "type": "bytes32"
        }
      ],
      "stateMutability": "view",
      "type": "function"
    },
    {
      "inputs": [
        {
          "internalType": "bytes32",
          "name": "role",
          "type": "bytes32"
        },
        {
          "internalType": "uint256",
          "name": "index",
          "type": "uint256"
        }
      ],
      "name": "getRoleMember",
      "outputs": [
        {
          "internalType": "address",
          "name": "",
          "type": "address"
        }
      ],
      "stateMutability": "view",
      "type": "function"
    },
    {
      "inputs": [
        {
          "internalType": "bytes32",
          "name": "role",
          "type": "bytes32"
        }
      ],
      "name": "getRoleMemberCount",
      "outputs": [
        {
          "internalType": "uint256",
          "name": "",
          "type": "uint256"
        }
      ],
      "stateMutability": "view",
      "type": "function"
    },
    {
      "inputs": [
        {
          "internalType": "bytes32",
          "name": "role",
          "type": "bytes32"
        },
        {
          "internalType": "address",
          "name": "account",
          "type": "address"
        }
      ],
      "name": "grantRole",
      "outputs": [],
      "stateMutability": "nonpayable",
      "type": "function"
    },
    {
      "inputs": [
        {
          "internalType": "bytes32",
          "name": "role",
          "type": "bytes32"
        },
        {
          "internalType": "address",
          "name": "account",
          "type": "address"
        }
      ],
      "name": "hasRole",
      "outputs": [
        {
          "internalType": "bool",
          "name": "",
          "type": "bool"
        }
      ],
      "stateMutability": "view",
      "type": "function"
    },
    {
      "inputs": [],
      "name": "nextId",
      "outputs": [
        {
          "internalType": "uint256",
          "name": "",
          "type": "uint256"
        }
      ],
      "stateMutability": "view",
      "type": "function"
    },
    {
      "inputs": [
        {
          "internalType": "bytes32",
          "name": "role",
          "type": "bytes32"
        },
        {
          "internalType": "address",
          "name": "account",
          "type": "address"
        }
      ],
      "name": "renounceRole",
      "outputs": [],
      "stateMutability": "nonpayable",
      "type": "function"
    },
    {
      "inputs": [
        {
          "internalType": "bytes32",
          "name": "role",
          "type": "bytes32"
        },
        {
          "internalType": "address",
          "name": "account",
          "type": "address"
        }
      ],
      "name": "revokeRole",
      "outputs": [],
      "stateMutability": "nonpayable",
      "type": "function"
    },
    {
      "inputs": [
        {
          "internalType": "uint256",
          "name": "",
          "type": "uint256"
        }
      ],
      "name": "users",
      "outputs": [
        {
          "internalType": "uint256",
          "name": "id",
          "type": "uint256"
        },
        {
          "internalType": "string",
          "name": "name",
          "type": "string"
        }
      ],
      "stateMutability": "view",
      "type": "function"
    },
    {
      "inputs": [
        {
          "internalType": "string",
          "name": "name",
          "type": "string"
        }
      ],
      "name": "create",
      "outputs": [],
      "stateMutability": "nonpayable",
      "type": "function"
    },
    {
      "inputs": [
        {
          "internalType": "uint256",
          "name": "id",
          "type": "uint256"
        }
      ],
      "name": "read",
      "outputs": [
        {
          "internalType": "uint256",
          "name": "",
          "type": "uint256"
        },
        {
          "internalType": "string",
          "name": "",
          "type": "string"
        }
      ],
      "stateMutability": "view",
      "type": "function"
    },
    {
      "inputs": [
        {
          "internalType": "uint256",
          "name": "id",
          "type": "uint256"
        },
        {
          "internalType": "string",
          "name": "name",
          "type": "string"
        }
      ],
      "name": "update",
      "outputs": [],
      "stateMutability": "nonpayable",
      "type": "function"
    },
    {
      "inputs": [
        {
          "internalType": "uint256",
          "name": "id",
          "type": "uint256"
        }
      ],
      "name": "destroy",
      "outputs": [],
      "stateMutability": "nonpayable",
      "type": "function"
    }
  ],
  "bytecode": "0x6080604052600160025534801561001557600080fd5b5061123d806100256000396000f3fe608060405234801561001057600080fd5b50600436106100ea5760003560e01c80639d1187701161008c578063ca15c87311610066578063ca15c8731461047e578063d547741f146104c0578063ed2e5a971461050e578063f745630f146105bc576100ea565b80639d11877014610377578063a217fddf146103a5578063b6a46b3b146103c3576100ea565b8063365b98b2116100c8578063365b98b2146101cd57806361b8ce8c1461027b5780639010d07c1461029957806391d1485414610311576100ea565b8063248a9ca3146100ef5780632f2ff15d1461013157806336568abe1461017f575b600080fd5b61011b6004803603602081101561010557600080fd5b8101908080359060200190929190505050610681565b6040518082815260200191505060405180910390f35b61017d6004803603604081101561014757600080fd5b8101908080359060200190929190803573ffffffffffffffffffffffffffffffffffffffff1690602001909291905050506106a0565b005b6101cb6004803603604081101561019557600080fd5b8101908080359060200190929190803573ffffffffffffffffffffffffffffffffffffffff169060200190929190505050610729565b005b6101f9600480360360208110156101e357600080fd5b81019080803590602001909291905050506107c2565b6040518083815260200180602001828103825283818151815260200191508051906020019080838360005b8381101561023f578082015181840152602081019050610224565b50505050905090810190601f16801561026c5780820380516001836020036101000a031916815260200191505b50935050505060405180910390f35b61028361088b565b6040518082815260200191505060405180910390f35b6102cf600480360360408110156102af57600080fd5b810190808035906020019092919080359060200190929190505050610891565b604051808273ffffffffffffffffffffffffffffffffffffffff1673ffffffffffffffffffffffffffffffffffffffff16815260200191505060405180910390f35b61035d6004803603604081101561032757600080fd5b8101908080359060200190929190803573ffffffffffffffffffffffffffffffffffffffff1690602001909291905050506108c2565b604051808215151515815260200191505060405180910390f35b6103a36004803603602081101561038d57600080fd5b81019080803590602001909291905050506108f3565b005b6103ad61093a565b6040518082815260200191505060405180910390f35b61047c600480360360208110156103d957600080fd5b81019080803590602001906401000000008111156103f657600080fd5b82018360208201111561040857600080fd5b8035906020019184600183028401116401000000008311171561042a57600080fd5b91908080601f016020809104026020016040519081016040528093929190818152602001838380828437600081840152601f19601f820116905080830192505050505050509192919290505050610941565b005b6104aa6004803603602081101561049457600080fd5b81019080803590602001909291905050506109c1565b6040518082815260200191505060405180910390f35b61050c600480360360408110156104d657600080fd5b8101908080359060200190929190803573ffffffffffffffffffffffffffffffffffffffff1690602001909291905050506109e7565b005b61053a6004803603602081101561052457600080fd5b8101908080359060200190929190505050610a70565b6040518083815260200180602001828103825283818151815260200191508051906020019080838360005b83811015610580578082015181840152602081019050610565565b50505050905090810190601f1680156105ad5780820380516001836020036101000a031916815260200191505b50935050505060405180910390f35b61067f600480360360408110156105d257600080fd5b8101908080359060200190929190803590602001906401000000008111156105f957600080fd5b82018360208201111561060b57600080fd5b8035906020019184600183028401116401000000008311171561062d57600080fd5b91908080601f016020809104026020016040519081016040528093929190818152602001838380828437600081840152601f19601f820116905080830192505050505050509192919290505050610b64565b005b6000806000838152602001908152602001600020600201549050919050565b6106c6600080848152602001908152602001600020600201546106c1610ba9565b6108c2565b61071b576040517f08c379a000000000000000000000000000000000000000000000000000000000815260040180806020018281038252602f81526020018061117a602f913960400191505060405180910390fd5b6107258282610bb1565b5050565b610731610ba9565b73ffffffffffffffffffffffffffffffffffffffff168173ffffffffffffffffffffffffffffffffffffffff16146107b4576040517f08c379a000000000000000000000000000000000000000000000000000000000815260040180806020018281038252602f8152602001806111d9602f913960400191505060405180910390fd5b6107be8282610c44565b5050565b600181815481106107cf57fe5b9060005260206000209060020201600091509050806000015490806001018054600181600116156101000203166002900480601f0160208091040260200160405190810160405280929190818152602001828054600181600116156101000203166002900480156108815780601f1061085657610100808354040283529160200191610881565b820191906000526020600020905b81548152906001019060200180831161086457829003601f168201915b5050505050905082565b60025481565b60006108ba82600080868152602001908152602001600020600001610cd790919063ffffffff16565b905092915050565b60006108eb82600080868152602001908152602001600020600001610cf190919063ffffffff16565b905092915050565b60006108fe82610d21565b90506001818154811061090d57fe5b9060005260206000209060020201600080820160009055600182016000610934919061106a565b50505050565b6000801b81565b6001604051806040016040528060025481526020018381525090806001815401808255809150506001900390600052602060002090600202016000909190919091506000820151816000015560208201518160010190805190602001906109a99291906110b2565b50505060026000815480929190600101919050555050565b60006109e0600080848152602001908152602001600020600001610de6565b9050919050565b610a0d60008084815260200190815260200160002060020154610a08610ba9565b6108c2565b610a62576040517f08c379a00000000000000000000000000000000000000000000000000000000081526004018080602001828103825260308152602001806111a96030913960400191505060405180910390fd5b610a6c8282610c44565b5050565b600060606000610a7f84610d21565b905060018181548110610a8e57fe5b90600052602060002090600202016000015460018281548110610aad57fe5b9060005260206000209060020201600101808054600181600116156101000203166002900480601f016020809104026020016040519081016040528092919081815260200182805460018160011615610100020316600290048015610b535780601f10610b2857610100808354040283529160200191610b53565b820191906000526020600020905b815481529060010190602001808311610b3657829003601f168201915b505050505090509250925050915091565b6000610b6f83610d21565b90508160018281548110610b7f57fe5b90600052602060002090600202016001019080519060200190610ba39291906110b2565b50505050565b600033905090565b610bd881600080858152602001908152602001600020600001610dfb90919063ffffffff16565b15610c4057610be5610ba9565b73ffffffffffffffffffffffffffffffffffffffff168173ffffffffffffffffffffffffffffffffffffffff16837f2f8788117e7eff1d82e926ec794901d17c78024a50270940304540a733656f0d60405160405180910390a45b5050565b610c6b81600080858152602001908152602001600020600001610e2b90919063ffffffff16565b15610cd357610c78610ba9565b73ffffffffffffffffffffffffffffffffffffffff168173ffffffffffffffffffffffffffffffffffffffff16837ff6391f5c32d9c69d2a47ea670b442974b53935d1edc7fd64eb21e047a839171b60405160405180910390a45b5050565b6000610ce68360000183610e5b565b60001c905092915050565b6000610d19836000018373ffffffffffffffffffffffffffffffffffffffff1660001b610ede565b905092915050565b600080600090505b600180549050811015610d72578260018281548110610d4457fe5b9060005260206000209060020201600001541415610d655780915050610de1565b8080600101915050610d29565b506040517f08c379a00000000000000000000000000000000000000000000000000000000081526004018080602001828103825260148152602001807f5573657220646f6573206e6f742065786973742100000000000000000000000081525060200191505060405180910390fd5b919050565b6000610df482600001610f01565b9050919050565b6000610e23836000018373ffffffffffffffffffffffffffffffffffffffff1660001b610f12565b905092915050565b6000610e53836000018373ffffffffffffffffffffffffffffffffffffffff1660001b610f82565b905092915050565b600081836000018054905011610ebc576040517f08c379a00000000000000000000000000000000000000000000000000000000081526004018080602001828103825260228152602001806111586022913960400191505060405180910390fd5b826000018281548110610ecb57fe5b9060005260206000200154905092915050565b600080836001016000848152602001908152602001600020541415905092915050565b600081600001805490509050919050565b6000610f1e8383610ede565b610f77578260000182908060018154018082558091505060019003906000526020600020016000909190919091505582600001805490508360010160008481526020019081526020016000208190555060019050610f7c565b600090505b92915050565b6000808360010160008481526020019081526020016000205490506000811461105e5760006001820390506000600186600001805490500390506000866000018281548110610fcd57fe5b9060005260206000200154905080876000018481548110610fea57fe5b906000526020600020018190555060018301876001016000838152602001908152602001600020819055508660000180548061102257fe5b60019003818190600052602060002001600090559055866001016000878152602001908152602001600020600090556001945050505050611064565b60009150505b92915050565b50805460018160011615610100020316600290046000825580601f1061109057506110af565b601f0160209004906000526020600020908101906110ae9190611132565b5b50565b828054600181600116156101000203166002900490600052602060002090601f016020900481019282601f106110f357805160ff1916838001178555611121565b82800160010185558215611121579182015b82811115611120578251825591602001919060010190611105565b5b50905061112e9190611132565b5090565b61115491905b80821115611150576000816000905550600101611138565b5090565b9056fe456e756d657261626c655365743a20696e646578206f7574206f6620626f756e6473416363657373436f6e74726f6c3a2073656e646572206d75737420626520616e2061646d696e20746f206772616e74416363657373436f6e74726f6c3a2073656e646572206d75737420626520616e2061646d696e20746f207265766f6b65416363657373436f6e74726f6c3a2063616e206f6e6c792072656e6f756e636520726f6c657320666f722073656c66a2646970667358221220e1a304035d2e16de276c4c8c4487eb66fe63ecdb46a58c1f3d5a75ab94c204c664736f6c634300060a0033",
  "immutableReferences": {},
  "source": "pragma solidity ^0.6.0;\n\nimport '@openzeppelin/contracts/access/AccessControl.sol';\n\ncontract Crud is AccessControl{\n\n  // bytes32 public constant USER_ROLE = keccak256(\"USER\");\n\n  // /// @dev Add `root` to the admin role as a member.\n  // constructor (address root) public {\n  //     _setupRole(DEFAULT_ADMIN_ROLE, root);\n  //     _setRoleAdmin(USER_ROLE, DEFAULT_ADMIN_ROLE);\n  // }\n\n  // /// @dev Restricted to members of the admin role.\n  // modifier onlyAdmin() {\n  //     require(isAdmin(msg.sender), \"Restricted to admins.\");\n  //     _;\n  // }\n\n  // /// @dev Return `true` if the account belongs to the admin role.\n  // function isAdmin(address account) public virtual view returns (bool) {\n  //     return hasRole(DEFAULT_ADMIN_ROLE, account);\n  // }\n\n\n\n  struct User {\n    uint id;\n    string name;\n  }\n  User[] public users;\n  uint public nextId = 1;\n\n  function create(string memory name) public {\n    users.push(User(nextId, name));\n    nextId++;\n  }\n\n  function read(uint id) view public returns(uint, string memory) {\n    uint i = find(id);\n    return(users[i].id, users[i].name);\n  }\n\n  function update(uint id, string memory name) public {\n    uint i = find(id);\n    users[i].name = name;\n  }\n\n  function destroy(uint id) public {\n    uint i = find(id);\n    delete users[i];\n  }\n\n  function find(uint id) view internal returns(uint) {\n    for(uint i = 0; i < users.length; i++) {\n      if(users[i].id == id) {\n        return i;\n      }\n    }\n    revert('User does not exist!');\n  }\n\n}\n",
  "sourcePath": "/home/nigel/DappCourse/eattheblocks-pro/dapp-30/day5-crud/frontend/start/contracts/Crud.sol",
  "compiler": {
    "name": "solc",
    "version": "0.6.10+commit.00c0fcaf.Emscripten.clang"
  },
  "schemaVersion": "3.2.0",
  "updatedAt": "2020-06-25T15:16:22.357Z",
  "devdoc": {
    "methods": {
      "getRoleAdmin(bytes32)": {
        "details": "Returns the admin role that controls `role`. See {grantRole} and {revokeRole}. To change a role's admin, use {_setRoleAdmin}."
      },
      "getRoleMember(bytes32,uint256)": {
        "details": "Returns one of the accounts that have `role`. `index` must be a value between 0 and {getRoleMemberCount}, non-inclusive. Role bearers are not sorted in any particular way, and their ordering may change at any point. WARNING: When using {getRoleMember} and {getRoleMemberCount}, make sure you perform all queries on the same block. See the following https://forum.openzeppelin.com/t/iterating-over-elements-on-enumerableset-in-openzeppelin-contracts/2296[forum post] for more information."
      },
      "getRoleMemberCount(bytes32)": {
        "details": "Returns the number of accounts that have `role`. Can be used together with {getRoleMember} to enumerate all bearers of a role."
      },
      "grantRole(bytes32,address)": {
        "details": "Grants `role` to `account`. If `account` had not been already granted `role`, emits a {RoleGranted} event. Requirements: - the caller must have ``role``'s admin role."
      },
      "hasRole(bytes32,address)": {
        "details": "Returns `true` if `account` has been granted `role`."
      },
      "renounceRole(bytes32,address)": {
        "details": "Revokes `role` from the calling account. Roles are often managed via {grantRole} and {revokeRole}: this function's purpose is to provide a mechanism for accounts to lose their privileges if they are compromised (such as when a trusted device is misplaced). If the calling account had been granted `role`, emits a {RoleRevoked} event. Requirements: - the caller must be `account`."
      },
      "revokeRole(bytes32,address)": {
        "details": "Revokes `role` from `account`. If `account` had been granted `role`, emits a {RoleRevoked} event. Requirements: - the caller must have ``role``'s admin role."
      }
    }
  },
  "userdoc": {
    "methods": {}
  }
}