{
  "contractName": "Crud",
  "abi": [
    {
      "inputs": [
        {
          "internalType": "address",
          "name": "root",
          "type": "address"
        }
      ],
      "stateMutability": "nonpayable",
      "type": "constructor"
    },
    {
      "anonymous": false,
      "inputs": [
        {
          "indexed": true,
          "internalType": "bytes32",
          "name": "role",
          "type": "bytes32"
        },
        {
          "indexed": true,
          "internalType": "bytes32",
          "name": "previousAdminRole",
          "type": "bytes32"
        },
        {
          "indexed": true,
          "internalType": "bytes32",
          "name": "newAdminRole",
          "type": "bytes32"
        }
      ],
      "name": "RoleAdminChanged",
      "type": "event"
    },
    {
      "anonymous": false,
      "inputs": [
        {
          "indexed": true,
          "internalType": "bytes32",
          "name": "role",
          "type": "bytes32"
        },
        {
          "indexed": true,
          "internalType": "address",
          "name": "account",
          "type": "address"
        },
        {
          "indexed": true,
          "internalType": "address",
          "name": "sender",
          "type": "address"
        }
      ],
      "name": "RoleGranted",
      "type": "event"
    },
    {
      "anonymous": false,
      "inputs": [
        {
          "indexed": true,
          "internalType": "bytes32",
          "name": "role",
          "type": "bytes32"
        },
        {
          "indexed": true,
          "internalType": "address",
          "name": "account",
          "type": "address"
        },
        {
          "indexed": true,
          "internalType": "address",
          "name": "sender",
          "type": "address"
        }
      ],
      "name": "RoleRevoked",
      "type": "event"
    },
    {
      "inputs": [],
      "name": "DEFAULT_ADMIN_ROLE",
      "outputs": [
        {
          "internalType": "bytes32",
          "name": "",
          "type": "bytes32"
        }
      ],
      "stateMutability": "view",
      "type": "function"
    },
    {
      "inputs": [],
      "name": "USER_ROLE",
      "outputs": [
        {
          "internalType": "bytes32",
          "name": "",
          "type": "bytes32"
        }
      ],
      "stateMutability": "view",
      "type": "function"
    },
    {
      "inputs": [
        {
          "internalType": "bytes32",
          "name": "role",
          "type": "bytes32"
        }
      ],
      "name": "getRoleAdmin",
      "outputs": [
        {
          "internalType": "bytes32",
          "name": "",
          "type": "bytes32"
        }
      ],
      "stateMutability": "view",
      "type": "function"
    },
    {
      "inputs": [
        {
          "internalType": "bytes32",
          "name": "role",
          "type": "bytes32"
        },
        {
          "internalType": "uint256",
          "name": "index",
          "type": "uint256"
        }
      ],
      "name": "getRoleMember",
      "outputs": [
        {
          "internalType": "address",
          "name": "",
          "type": "address"
        }
      ],
      "stateMutability": "view",
      "type": "function"
    },
    {
      "inputs": [
        {
          "internalType": "bytes32",
          "name": "role",
          "type": "bytes32"
        }
      ],
      "name": "getRoleMemberCount",
      "outputs": [
        {
          "internalType": "uint256",
          "name": "",
          "type": "uint256"
        }
      ],
      "stateMutability": "view",
      "type": "function"
    },
    {
      "inputs": [
        {
          "internalType": "bytes32",
          "name": "role",
          "type": "bytes32"
        },
        {
          "internalType": "address",
          "name": "account",
          "type": "address"
        }
      ],
      "name": "grantRole",
      "outputs": [],
      "stateMutability": "nonpayable",
      "type": "function"
    },
    {
      "inputs": [
        {
          "internalType": "bytes32",
          "name": "role",
          "type": "bytes32"
        },
        {
          "internalType": "address",
          "name": "account",
          "type": "address"
        }
      ],
      "name": "hasRole",
      "outputs": [
        {
          "internalType": "bool",
          "name": "",
          "type": "bool"
        }
      ],
      "stateMutability": "view",
      "type": "function"
    },
    {
      "inputs": [],
      "name": "nextId",
      "outputs": [
        {
          "internalType": "uint256",
          "name": "",
          "type": "uint256"
        }
      ],
      "stateMutability": "view",
      "type": "function"
    },
    {
      "inputs": [
        {
          "internalType": "bytes32",
          "name": "role",
          "type": "bytes32"
        },
        {
          "internalType": "address",
          "name": "account",
          "type": "address"
        }
      ],
      "name": "renounceRole",
      "outputs": [],
      "stateMutability": "nonpayable",
      "type": "function"
    },
    {
      "inputs": [
        {
          "internalType": "bytes32",
          "name": "role",
          "type": "bytes32"
        },
        {
          "internalType": "address",
          "name": "account",
          "type": "address"
        }
      ],
      "name": "revokeRole",
      "outputs": [],
      "stateMutability": "nonpayable",
      "type": "function"
    },
    {
      "inputs": [
        {
          "internalType": "uint256",
          "name": "",
          "type": "uint256"
        }
      ],
      "name": "users",
      "outputs": [
        {
          "internalType": "uint256",
          "name": "id",
          "type": "uint256"
        },
        {
          "internalType": "string",
          "name": "name",
          "type": "string"
        },
        {
          "internalType": "address",
          "name": "account",
          "type": "address"
        }
      ],
      "stateMutability": "view",
      "type": "function"
    },
    {
      "inputs": [
        {
          "internalType": "address",
          "name": "account",
          "type": "address"
        }
      ],
      "name": "isAdmin",
      "outputs": [
        {
          "internalType": "bool",
          "name": "",
          "type": "bool"
        }
      ],
      "stateMutability": "view",
      "type": "function"
    },
    {
      "inputs": [
        {
          "internalType": "string",
          "name": "name",
          "type": "string"
        },
        {
          "internalType": "address",
          "name": "account",
          "type": "address"
        }
      ],
      "name": "create",
      "outputs": [],
      "stateMutability": "nonpayable",
      "type": "function"
    },
    {
      "inputs": [
        {
          "internalType": "uint256",
          "name": "id",
          "type": "uint256"
        }
      ],
      "name": "read",
      "outputs": [
        {
          "internalType": "uint256",
          "name": "",
          "type": "uint256"
        },
        {
          "internalType": "string",
          "name": "",
          "type": "string"
        }
      ],
      "stateMutability": "view",
      "type": "function"
    },
    {
      "inputs": [
        {
          "internalType": "uint256",
          "name": "id",
          "type": "uint256"
        },
        {
          "internalType": "string",
          "name": "name",
          "type": "string"
        }
      ],
      "name": "update",
      "outputs": [],
      "stateMutability": "nonpayable",
      "type": "function"
    },
    {
      "inputs": [
        {
          "internalType": "uint256",
          "name": "id",
          "type": "uint256"
        }
      ],
      "name": "destroy",
      "outputs": [],
      "stateMutability": "nonpayable",
      "type": "function"
    }
  ],
  "bytecode": "0x608060405260016002553480156200001657600080fd5b506040516200179538038062001795833981810160405260208110156200003c57600080fd5b8101908080519060200190929190505050620000626000801b82620000b360201b60201c565b620000ac60405180807f5553455200000000000000000000000000000000000000000000000000000000815250600401905060405180910390206000801b620000c960201b60201c565b50620002ab565b620000c582826200012b60201b60201c565b5050565b8060008084815260200190815260200160002060020154837fbd79b86ffe0ab8e8776151514217cd7cacd52c909f66475c3af44e129f0b00ff60405160405180910390a480600080848152602001908152602001600020600201819055505050565b6200015981600080858152602001908152602001600020600001620001ce60201b62000e461790919060201c565b15620001ca576200016f6200020660201b60201c565b73ffffffffffffffffffffffffffffffffffffffff168173ffffffffffffffffffffffffffffffffffffffff16837f2f8788117e7eff1d82e926ec794901d17c78024a50270940304540a733656f0d60405160405180910390a45b5050565b6000620001fe836000018373ffffffffffffffffffffffffffffffffffffffff1660001b6200020e60201b60201c565b905092915050565b600033905090565b60006200022283836200028860201b60201c565b6200027d57826000018290806001815401808255809150506001900390600052602060002001600090919091909150558260000180549050836001016000848152602001908152602001600020819055506001905062000282565b600090505b92915050565b600080836001016000848152602001908152602001600020541415905092915050565b6114da80620002bb6000396000f3fe608060405234801561001057600080fd5b50600436106101005760003560e01c80639010d07c11610097578063ca15c87311610066578063ca15c87314610561578063d547741f146105a3578063ed2e5a97146105f1578063f745630f1461069f57610100565b80639010d07c1461043757806391d14854146104af5780639d11877014610515578063a217fddf1461054357610100565b806336568abe116100d357806336568abe1461020f578063365b98b21461025d57806361b8ce8c1461033e57806384b47b0f1461035c57610100565b80631311916114610105578063248a9ca31461012357806324d7806c146101655780632f2ff15d146101c1575b600080fd5b61010d610764565b6040518082815260200191505060405180910390f35b61014f6004803603602081101561013957600080fd5b810190808035906020019092919050505061079d565b6040518082815260200191505060405180910390f35b6101a76004803603602081101561017b57600080fd5b81019080803573ffffffffffffffffffffffffffffffffffffffff1690602001909291905050506107bc565b604051808215151515815260200191505060405180910390f35b61020d600480360360408110156101d757600080fd5b8101908080359060200190929190803573ffffffffffffffffffffffffffffffffffffffff1690602001909291905050506107d2565b005b61025b6004803603604081101561022557600080fd5b8101908080359060200190929190803573ffffffffffffffffffffffffffffffffffffffff16906020019092919050505061085b565b005b6102896004803603602081101561027357600080fd5b81019080803590602001909291905050506108f4565b60405180848152602001806020018373ffffffffffffffffffffffffffffffffffffffff1673ffffffffffffffffffffffffffffffffffffffff168152602001828103825284818151815260200191508051906020019080838360005b838110156103015780820151818401526020810190506102e6565b50505050905090810190601f16801561032e5780820380516001836020036101000a031916815260200191505b5094505050505060405180910390f35b6103466109e3565b6040518082815260200191505060405180910390f35b6104356004803603604081101561037257600080fd5b810190808035906020019064010000000081111561038f57600080fd5b8201836020820111156103a157600080fd5b803590602001918460018302840111640100000000831117156103c357600080fd5b91908080601f016020809104026020016040519081016040528093929190818152602001838380828437600081840152601f19601f820116905080830192505050505050509192919290803573ffffffffffffffffffffffffffffffffffffffff1690602001909291905050506109e9565b005b61046d6004803603604081101561044d57600080fd5b810190808035906020019092919080359060200190929190505050610b87565b604051808273ffffffffffffffffffffffffffffffffffffffff1673ffffffffffffffffffffffffffffffffffffffff16815260200191505060405180910390f35b6104fb600480360360408110156104c557600080fd5b8101908080359060200190929190803573ffffffffffffffffffffffffffffffffffffffff169060200190929190505050610bb8565b604051808215151515815260200191505060405180910390f35b6105416004803603602081101561052b57600080fd5b8101908080359060200190929190505050610be9565b005b61054b610c57565b6040518082815260200191505060405180910390f35b61058d6004803603602081101561057757600080fd5b8101908080359060200190929190505050610c5e565b6040518082815260200191505060405180910390f35b6105ef600480360360408110156105b957600080fd5b8101908080359060200190929190803573ffffffffffffffffffffffffffffffffffffffff169060200190929190505050610c84565b005b61061d6004803603602081101561060757600080fd5b8101908080359060200190929190505050610d0d565b6040518083815260200180602001828103825283818151815260200191508051906020019080838360005b83811015610663578082015181840152602081019050610648565b50505050905090810190601f1680156106905780820380516001836020036101000a031916815260200191505b50935050505060405180910390f35b610762600480360360408110156106b557600080fd5b8101908080359060200190929190803590602001906401000000008111156106dc57600080fd5b8201836020820111156106ee57600080fd5b8035906020019184600183028401116401000000008311171561071057600080fd5b91908080601f016020809104026020016040519081016040528093929190818152602001838380828437600081840152601f19601f820116905080830192505050505050509192919290505050610e01565b005b60405180807f55534552000000000000000000000000000000000000000000000000000000008152506004019050604051809103902081565b6000806000838152602001908152602001600020600201549050919050565b60006107cb6000801b83610bb8565b9050919050565b6107f8600080848152602001908152602001600020600201546107f3610e76565b610bb8565b61084d576040517f08c379a000000000000000000000000000000000000000000000000000000000815260040180806020018281038252602f815260200180611417602f913960400191505060405180910390fd5b6108578282610e7e565b5050565b610863610e76565b73ffffffffffffffffffffffffffffffffffffffff168173ffffffffffffffffffffffffffffffffffffffff16146108e6576040517f08c379a000000000000000000000000000000000000000000000000000000000815260040180806020018281038252602f815260200180611476602f913960400191505060405180910390fd5b6108f08282610f11565b5050565b6001818154811061090157fe5b9060005260206000209060030201600091509050806000015490806001018054600181600116156101000203166002900480601f0160208091040260200160405190810160405280929190818152602001828054600181600116156101000203166002900480156109b35780601f10610988576101008083540402835291602001916109b3565b820191906000526020600020905b81548152906001019060200180831161099657829003601f168201915b5050505050908060020160009054906101000a900473ffffffffffffffffffffffffffffffffffffffff16905083565b60025481565b6109f2336107bc565b610a64576040517f08c379a00000000000000000000000000000000000000000000000000000000081526004018080602001828103825260158152602001807f5265737472696374656420746f2061646d696e732e000000000000000000000081525060200191505060405180910390fd5b6001604051806060016040528060025481526020018481526020018373ffffffffffffffffffffffffffffffffffffffff168152509080600181540180825580915050600190039060005260206000209060030201600090919091909150600082015181600001556020820151816001019080519060200190610ae8929190611307565b5060408201518160020160006101000a81548173ffffffffffffffffffffffffffffffffffffffff021916908373ffffffffffffffffffffffffffffffffffffffff1602179055505050600260008154809291906001019190505550610b8360405180807f555345520000000000000000000000000000000000000000000000000000000081525060040190506040518091039020826107d2565b5050565b6000610bb082600080868152602001908152602001600020600001610fa490919063ffffffff16565b905092915050565b6000610be182600080868152602001908152602001600020600001610fbe90919063ffffffff16565b905092915050565b6000610bf482610fee565b905060018181548110610c0357fe5b9060005260206000209060030201600080820160009055600182016000610c2a9190611387565b6002820160006101000a81549073ffffffffffffffffffffffffffffffffffffffff021916905550505050565b6000801b81565b6000610c7d6000808481526020019081526020016000206000016110b3565b9050919050565b610caa60008084815260200190815260200160002060020154610ca5610e76565b610bb8565b610cff576040517f08c379a00000000000000000000000000000000000000000000000000000000081526004018080602001828103825260308152602001806114466030913960400191505060405180910390fd5b610d098282610f11565b5050565b600060606000610d1c84610fee565b905060018181548110610d2b57fe5b90600052602060002090600302016000015460018281548110610d4a57fe5b9060005260206000209060030201600101808054600181600116156101000203166002900480601f016020809104026020016040519081016040528092919081815260200182805460018160011615610100020316600290048015610df05780601f10610dc557610100808354040283529160200191610df0565b820191906000526020600020905b815481529060010190602001808311610dd357829003601f168201915b505050505090509250925050915091565b6000610e0c83610fee565b90508160018281548110610e1c57fe5b90600052602060002090600302016001019080519060200190610e40929190611307565b50505050565b6000610e6e836000018373ffffffffffffffffffffffffffffffffffffffff1660001b6110c8565b905092915050565b600033905090565b610ea581600080858152602001908152602001600020600001610e4690919063ffffffff16565b15610f0d57610eb2610e76565b73ffffffffffffffffffffffffffffffffffffffff168173ffffffffffffffffffffffffffffffffffffffff16837f2f8788117e7eff1d82e926ec794901d17c78024a50270940304540a733656f0d60405160405180910390a45b5050565b610f388160008085815260200190815260200160002060000161113890919063ffffffff16565b15610fa057610f45610e76565b73ffffffffffffffffffffffffffffffffffffffff168173ffffffffffffffffffffffffffffffffffffffff16837ff6391f5c32d9c69d2a47ea670b442974b53935d1edc7fd64eb21e047a839171b60405160405180910390a45b5050565b6000610fb38360000183611168565b60001c905092915050565b6000610fe6836000018373ffffffffffffffffffffffffffffffffffffffff1660001b6111eb565b905092915050565b600080600090505b60018054905081101561103f57826001828154811061101157fe5b906000526020600020906003020160000154141561103257809150506110ae565b8080600101915050610ff6565b506040517f08c379a00000000000000000000000000000000000000000000000000000000081526004018080602001828103825260148152602001807f5573657220646f6573206e6f742065786973742100000000000000000000000081525060200191505060405180910390fd5b919050565b60006110c18260000161120e565b9050919050565b60006110d483836111eb565b61112d578260000182908060018154018082558091505060019003906000526020600020016000909190919091505582600001805490508360010160008481526020019081526020016000208190555060019050611132565b600090505b92915050565b6000611160836000018373ffffffffffffffffffffffffffffffffffffffff1660001b61121f565b905092915050565b6000818360000180549050116111c9576040517f08c379a00000000000000000000000000000000000000000000000000000000081526004018080602001828103825260228152602001806113f56022913960400191505060405180910390fd5b8260000182815481106111d857fe5b9060005260206000200154905092915050565b600080836001016000848152602001908152602001600020541415905092915050565b600081600001805490509050919050565b600080836001016000848152602001908152602001600020549050600081146112fb576000600182039050600060018660000180549050039050600086600001828154811061126a57fe5b906000526020600020015490508087600001848154811061128757fe5b90600052602060002001819055506001830187600101600083815260200190815260200160002081905550866000018054806112bf57fe5b60019003818190600052602060002001600090559055866001016000878152602001908152602001600020600090556001945050505050611301565b60009150505b92915050565b828054600181600116156101000203166002900490600052602060002090601f016020900481019282601f1061134857805160ff1916838001178555611376565b82800160010185558215611376579182015b8281111561137557825182559160200191906001019061135a565b5b50905061138391906113cf565b5090565b50805460018160011615610100020316600290046000825580601f106113ad57506113cc565b601f0160209004906000526020600020908101906113cb91906113cf565b5b50565b6113f191905b808211156113ed5760008160009055506001016113d5565b5090565b9056fe456e756d657261626c655365743a20696e646578206f7574206f6620626f756e6473416363657373436f6e74726f6c3a2073656e646572206d75737420626520616e2061646d696e20746f206772616e74416363657373436f6e74726f6c3a2073656e646572206d75737420626520616e2061646d696e20746f207265766f6b65416363657373436f6e74726f6c3a2063616e206f6e6c792072656e6f756e636520726f6c657320666f722073656c66a2646970667358221220b03bdbd8c1d9b80775968b17cde6aaacd9199c1e6eda9ac45ff93b9dd5c2cccf64736f6c634300060a0033",
  "immutableReferences": {},
  "source": "pragma solidity ^0.6.0;\n\nimport \"@openzeppelin/contracts/access/AccessControl.sol\";\n\ncontract Crud is AccessControl{\n\n  bytes32 public constant USER_ROLE = keccak256(\"USER\");\n\n  /// @dev Add `root` to the admin role as a member.\n  constructor (address root) public {\n      _setupRole(DEFAULT_ADMIN_ROLE, root);\n      _setRoleAdmin(USER_ROLE, DEFAULT_ADMIN_ROLE);\n  }\n\n  /// @dev Restricted to members of the admin role.\n  modifier onlyAdmin() {\n      require(isAdmin(msg.sender), \"Restricted to admins.\");\n      _;\n  }\n\n      /// @dev Return `true` if the account belongs to the admin role.\n  function isAdmin(address account) public virtual view returns (bool) {\n      return hasRole(DEFAULT_ADMIN_ROLE, account);\n  }\n\n  struct User {\n    uint id;\n    string name;\n    address account;\n  }\n  User[] public users;\n  uint public nextId = 1;\n\n  function create(string memory name, address account) public onlyAdmin() {      \n    users.push(User(nextId, name, account));\n    nextId++;\n    grantRole(USER_ROLE, account);\n  }\n\n  function read(uint id) view public returns(uint, string memory) {\n    uint i = find(id);\n    return(users[i].id, users[i].name);\n  }\n\n  function update(uint id, string memory name) public {\n    uint i = find(id);\n    users[i].name = name;\n  }\n\n  function destroy(uint id) public {\n    uint i = find(id);\n    delete users[i];\n  }\n\n  function find(uint id) view internal returns(uint) {\n    for(uint i = 0; i < users.length; i++) {\n      if(users[i].id == id) {\n        return i;\n      }\n    }\n    revert('User does not exist!');\n  }\n\n}\n",
  "sourcePath": "/home/nigel/DappCourse/eattheblocks-pro/dapp-30/day5-crud/tests/start/contracts/Crud.sol",
  "compiler": {
    "name": "solc",
    "version": "0.6.10+commit.00c0fcaf.Emscripten.clang"
  },
  "schemaVersion": "3.2.0",
  "updatedAt": "2020-06-26T09:36:47.421Z",
  "devdoc": {
    "methods": {
      "constructor": {
        "details": "Add `root` to the admin role as a member."
      },
      "getRoleAdmin(bytes32)": {
        "details": "Returns the admin role that controls `role`. See {grantRole} and {revokeRole}. To change a role's admin, use {_setRoleAdmin}."
      },
      "getRoleMember(bytes32,uint256)": {
        "details": "Returns one of the accounts that have `role`. `index` must be a value between 0 and {getRoleMemberCount}, non-inclusive. Role bearers are not sorted in any particular way, and their ordering may change at any point. WARNING: When using {getRoleMember} and {getRoleMemberCount}, make sure you perform all queries on the same block. See the following https://forum.openzeppelin.com/t/iterating-over-elements-on-enumerableset-in-openzeppelin-contracts/2296[forum post] for more information."
      },
      "getRoleMemberCount(bytes32)": {
        "details": "Returns the number of accounts that have `role`. Can be used together with {getRoleMember} to enumerate all bearers of a role."
      },
      "grantRole(bytes32,address)": {
        "details": "Grants `role` to `account`. If `account` had not been already granted `role`, emits a {RoleGranted} event. Requirements: - the caller must have ``role``'s admin role."
      },
      "hasRole(bytes32,address)": {
        "details": "Returns `true` if `account` has been granted `role`."
      },
      "isAdmin(address)": {
        "details": "Return `true` if the account belongs to the admin role."
      },
      "renounceRole(bytes32,address)": {
        "details": "Revokes `role` from the calling account. Roles are often managed via {grantRole} and {revokeRole}: this function's purpose is to provide a mechanism for accounts to lose their privileges if they are compromised (such as when a trusted device is misplaced). If the calling account had been granted `role`, emits a {RoleRevoked} event. Requirements: - the caller must be `account`."
      },
      "revokeRole(bytes32,address)": {
        "details": "Revokes `role` from `account`. If `account` had been granted `role`, emits a {RoleRevoked} event. Requirements: - the caller must have ``role``'s admin role."
      }
    }
  },
  "userdoc": {
    "methods": {}
  }
}